:020000040800F2
:100000000050002001080008CD060008CF060008B7
:10001000D1060008D3060008D5060008000000003D
:10002000000000000000000000000000D11C0008DB
:10003000D706000800000000711D0008B51D00086B
:10004000490800084908000849080008490800084C
:10005000490800084908000849080008490800083C
:10006000490800084908000849080008490800082C
:10007000490800084908000849080008490800081C
:10008000490800084908000849080008490800080C
:1000900049080008490800084908000849080008FC
:1000A00049080008D906000849080008490800085E
:1000B00049080008490800084908000849080008DC
:1000C00049080008490800084908000849080008CC
:1000D00049080008490800084908000849080008BC
:1000E0004908000849080008E90600080000000067
:1000F0000000000000000000000000000000000000
:0C01000000000000000000005FF808F1A3
:1001100010B5054C237833B9044B13B10448AFF341
:1001200000800123237010BD58080020000000004B
:100130000C3C000808B5034B1BB103490348AFF35F
:10014000008008BD000000005C0800200C3C000896
:10015000844641EA000313F0030349D1403A23D314
:100160000B6803604B6843608B688360CB68C36037
:100170000B6903614B6943618B698361CB69C3611F
:100180000B6A03624B6A43628B6A8362CB6AC36207
:100190000B6B03634B6B43638B6B8363CB6BC363EF
:1001A00040304031403ADBD230320BD30B68036031
:1001B0004B6843608B688360CB68C360103010313C
:1001C000103AF3D20C3205D351F8043B40F8043B0B
:1001D000043AF9D2043208D0D2071CBF11F8013B0F
:1001E00000F8013B01D30B8803806046704700BFD5
:1001F000082A13D38B07B1D010F00303AED0C3F19C
:100200000403D21ADB071CBF11F8013B00F8013BC5
:10021000A4D331F8023B20F8023B9FE7043AD9D33C
:10022000013A11F8013B00F8013BF9D20B78037059
:100230004B7843708B7883706046704708B5012017
:1002400001F07EFCFBE708B5012001F079FCFBE73B
:1002500008B5012001F074FCFBE7000008B50B4A6B
:1002600000210B4801F0F4FB0A4B18600A4A0021F8
:100270000A4801F0EDFB0A4B18600A4A00210A48BF
:1002800001F0E6FB094B186008BD00BF503C0008B8
:100290003D02000874080020743C00084702000872
:1002A00078080020983C0008510200087C080020D3
:1002B00030B589B000240494059406940794174B34
:1002C0009A6942F020029A619A6902F02002019232
:1002D000019A9A6942F004029A619A6902F0040252
:1002E0000292029A9A6942F008029A619B6903F0AD
:1002F00008030393039B0A4D22460121284600F080
:1003000033FC01230493059306940223079304A965
:10031000284600F017FB09B030BD00BF00100240B6
:100320000008014008B50B480B4B03600B4B4360C2
:1003300000238360C3604FF48042026143618361A4
:10034000C361036200F016FC00B908BD00F092F82A
:10035000FBE700BF8008002000540040A086010099
:1003600008B50B480B4B03600B4B436000238360C5
:10037000C3604FF48042026143618361C3610362E1
:1003800000F0F8FB00B908BD00F074F8FBE700BF0F
:10039000D408002000580040A086010010B588B0A5
:1003A000002304930593069307930368264A934218
:1003B00004D0264A934227D008B010BD244CA3692C
:1003C00043F00803A361A36903F008030093009BB3
:1003D0004FF440730493122305930323079304A956
:1003E0001C4800F0AFFA1C4A536843F0E06343F046
:1003F00002035360E36943F40013E361E36903F428
:1004000000130193019BD7E7114CA36943F0080344
:10041000A361A36903F008030293029B4FF44063B6
:100420000493122305930323079304A9094800F0BA
:1004300089FAE36943F48003E361E36903F4800329
:100440000393039BB8E700BF0054004000580040EE
:1004500000100240000C01400000014008B5026895
:10046000034B9A4200D008BD00F002FAFBE700BF40
:10047000002C014072B6FEE700B595B0282200219D
:100480000DEB020003F026F9002305930693079372
:1004900008930993019302930393049301220A9210
:1004A0004FF480330B930E920222119212934FF469
:1004B000801313930AA800F0DDFCD0B90F23059335
:1004C00002230693002307934FF480620892099356
:1004D000012105A800F00EFF68B9102301934FF425
:1004E0008003049301A800F0FFFF30B915B05DF858
:1004F00004FBFFF7BFFFFFF7BDFFFFF7BBFF08B52A
:1005000000F0A4F9FFF7B8FFFFF7D2FE00F02AF9D8
:10051000FFF708FFFFF724FF00F008F801F050FA9A
:10052000FFF79CFE01F06EFAFEE7000008B50E48EA
:100530000E4B03604FF48273436000238360C360FB
:10054000036143614FF4007282610822C261036259
:10055000436283620A23C36201F052F800B908BD06
:10056000FFF788FFFBE700BF2809002000300140AB
:1005700010B586B000230293039304930593026899
:10058000164B9A4201D006B010BD03F560439A693C
:1005900042F480529A619A6902F480520092009A61
:1005A0009A6942F004029A619B6903F00403019383
:1005B000019BA02302930223039303230593084C7A
:1005C00002A9204600F0BEF94023029300230393C2
:1005D000049302A9204600F0B5F9D4E700300140A9
:1005E0000008014000B583B0114B9A6942F0010246
:1005F0009A619A6902F001020092009ADA6942F067
:100600008052DA61DB6903F080530193019B002281
:100610000F216FF0010000F04FF9064A536823F0F4
:10062000E06343F00073536003B05DF804FB00BF68
:10063000001002400000014030B589B004461E4B56
:100640009A6942F400629A619B6903F40063019322
:10065000019B02A903A800F029FF00F017FF034641
:100660001648A0FB03239B0C013B1548154A02606A
:1006700040F2E732C260436000230361836083611C
:1006800001F04AF9054610B1284609B030BD0C48C2
:1006900001F012F805460028F6D1192000F044F9BF
:1006A0000F2C01D90125EFE700222146192000F087
:1006B00003F9054B1C60E7E70010024083DE1B4393
:1006C00080090020002C014008000020FEE7FEE722
:1006D000FEE7FEE7FEE7704708B5024801F024F8A0
:1006E00008BD00BF8009002008B5084B9B6923B9ED
:1006F000074B4FF480225A6108BD064A136923F064
:1007000006031361FFF7B8FEF2E700BFCC09002033
:100710000004014000ED00E010B503460C4A0D490D
:100720000D48006840B10C4800680344521A9342D7
:1007300006D8094A136010BD0748084C0460F2E768
:1007400002F09EFF0C2303604FF0FF30F3E700BF81
:100750000050002000040000C8090020A02E002046
:100760007047000008B50948094B0360082343603F
:100770000223836001238361C3610023036200F0CD
:10078000D7FA00B908BDFFF775FEFBE7CC090020DA
:10079000005C00400268184B9A4200D0704700B5D8
:1007A00083B003F5DA33DA6942F40002DA61DB6917
:1007B00003F400030193019B8369012B02D003B072
:1007C0005DF804FB0D4B4FF480225A61DA6822F485
:1007D0008022DA609A6842F480229A601A6842F4B1
:1007E00080221A60002205212A2000F065F82A20C4
:1007F00000F09AF8E3E700BF005C0040000401400D
:100800000C480D490D4A002302E0D458C45004336B
:10081000C4188C42F9D30A4A0A4C002301E0136041
:100820000432A242FBD3FFF79BFF02F02FFFFFF73A
:1008300066FE70470000002054080020103D0008AC
:10084000580800209C2E0020FEE7000008B5074A4B
:10085000136843F010031360032000F01BF80F200F
:10086000FFF7EAFEFFF7BEFE002008BD00200240B1
:10087000034A1168034B1B780B441360704700BF99
:10088000B80C002004000020014B1868704700BF1E
:10089000B80C0020074AD36823F4E0631B041B0C48
:1008A000000200F4E060034343F0BF6343F400330D
:1008B000D360704700ED00E000B5194BDB68C3F36F
:1008C0000223C3F1070CBCF1040F28BF4FF0040C46
:1008D00003F1040EBEF1060F18D9033B4FF0FF3EA3
:1008E0000EFA0CFC21EA0C0199400EFA03F322EAFD
:1008F0000303194300280BDB0901C9B200F1604072
:1009000000F5614080F800135DF804FB0023E5E783
:1009100000F00F000901C9B2024B1954F4E700BFFF
:1009200000ED00E014ED00E0002807DB00F01F02FE
:10093000400901239340024A42F82030704700BF2B
:1009400000E100E070B582B00024A446A6E0804D2E
:10095000AA4210D007D97F4DAA420CD005F58035A8
:10096000AA4208D013E0A5F58015AA4203D005F5E8
:100970007025AA4207D18A68002A58D0012A51D08E
:100980004361082403E0A5F58015AA42F3D0BEF127
:10099000FF0F4ED80646BEF1FF0F4CD84FEA8C022F
:1009A00033680F25954023EA050304FA02F2134346
:1009B00033604B6813F0805F6ED0674B9A6942F0EA
:1009C00001029A619B6903F001030193019B4FEAC5
:1009D0009C02951C614B53F825600CF003039D00AD
:1009E0000F23AB4026EA03065D4B984229D003F55E
:1009F0008063984200F08E8003F58063984200F097
:100A00008B8003F58063984219D004231AE0CC68E8
:100A1000BDE7CC680434BAE7CC680834B7E7CC68E3
:100A20000C34B4E703610824B1E70024AFE70424E1
:100A3000ADE7061DAFE7ACF108029200B0E7032373
:100A400000E00023AB4033430232444D45F82230EE
:100A50004B6813F4803F61D0424A136843EA0E03A7
:100A600013604B6813F4003F5ED03E4A536843EA7C
:100A70000E0353604B6813F4801F5BD0394A9368B0
:100A800043EA0E0393604B6813F4001F58D0354AB5
:100A9000D36843EA0E03D3600CF1010C0A6832FA02
:100AA0000CF353D0012303FA0CF302EA030E33EAEA
:100AB0000202F1D14A68122A3FF649AF122A3FF6E4
:100AC00066AF01A555F822F0770900080F0A000863
:100AD000190A00082B0A00088F0900088F0900086E
:100AE0008F0900088F0900088F0900088F09000886
:100AF0008F0900088F0900088F0900088F09000876
:100B00008F0900088F0900088F090008130A0008E0
:100B10001F0A0008012395E7022393E7114A13688F
:100B200023EA0E0313609CE70E4A536823EA0E0380
:100B300053609FE70B4A936823EA0E039360A2E792
:100B4000084AD36823EA0E03D360A5E702B070BD5C
:100B5000000022100000311000100240000001408F
:100B600000080140000401400AB101617047090416
:100B700001617047002800F0CC8070B5044690F801
:100B80003D30002B77D0242384F83D302268136851
:100B900023F0010313602268136843F400431360D9
:100BA0002268136823F40043136000F05FFC62685E
:100BB0005A4B9A4264D85A4B98428CBF0023012367
:100BC000002B40F0A8805749A1FB00318B0C256811
:100BD0006A6822F03F0242EA91426A6021680A6A2A
:100BE00022F03F0266684D4DAE424FD801331343A9
:100BF0000B622168CA6922F44F4222F0FF02666844
:100C0000464B9E424CD8431E7600B3FBF6F30133AD
:100C100040F6FC70034278D0C3F30B031343CB615F
:100C200021680B6823F0C003E269206A0243134382
:100C30000B6021688B6823F4034323F0FF032269D0
:100C4000E068024313438B602168CB6823F0FF0305
:100C50006269A06902431343CB602268136843F0C2
:100C60000103136000202064202384F83D302063BA
:100C700084F83E0070BD80F83C30FFF78FFB82E7C0
:100C8000294B98428CBF0023012399E74FF49675B6
:100C900005FB03F3254DA5FB03539B090133A6E791
:100CA000A368BBB9451E06EB460CB5FBFCF5013548
:100CB000C5F30B05B5FA85F56D0945BBC3B9013818
:100CC00006EB4603B0FBF3F30133C3F30B0343F42A
:100CD0000043A3E7451E06EB860C0CEB8C0CB5FB22
:100CE000FCF50135C5F30B05B5FA85F56D09E4E7AB
:100CF000013806EB860303EB8303B0FBF3F3013308
:100D0000C3F30B0343F4404388E7042386E701233E
:100D100084E7012070470120ACE700BFA0860100F6
:100D20007F841E0083DE1B43FF083D00D34D62100D
:100D300070B586B0002800F08580044690F8A9328E
:100D4000EBB1032384F8A932206800F01AFE25468F
:100D500055F8106BEC460FCDACE80F002B68CCF8C3
:100D60000030231D0ECB304600F004FE054658B17E
:100D7000022384F8A9320125284606B070BD80F808
:100D8000A832FFF707FDDCE70021206800F003FE32
:100D90002B461AE05A1C02EB820104EBC101012030
:100DA000487002EB820104F8313003EB830104EB5D
:100DB000C101CB8602EB820C04EBCC0C00208CF83A
:100DC00003008863C8630864D3B261688B42E1D3CF
:100DD00016E005EB850304EBC303002283F86921C9
:100DE00083F8685183F86B21C3F87821C3F87C211C
:100DF00005EB850304EBC303C3F880210135EDB295
:100E0000A942E6D8254655F8106BEC460FCDACE864
:100E10000F002B68CCF80030231D0ECB304600F0BD
:100E2000BCFD054620B1022384F8A9320125A3E7C1
:100E3000002384F82430012384F8A932206800F0CC
:100E4000BDFD99E7012597E782B0084B1B68084A6A
:100E5000A2FB03235B0A00FB03F3019300BF019B8A
:100E60005A1E0192002BF9D102B0704700000020F9
:100E7000D34D6210002800F0F18170B582B00446B5
:100E8000036813F0010F2CD0994B5B6803F00C033F
:100E9000042B1DD0964B5B6803F00C03082B12D07B
:100EA0006368B3F5803F41D0002B55D103F18043F7
:100EB00003F504331A6822F480321A601A6822F4A7
:100EC00080221A6037E08A4B5B6813F4803FE7D0DA
:100ED000874B1B6813F4003F03D06368002B00F0BE
:100EE000BF81236813F0020F75D0814B5B6813F04C
:100EF0000C0F5FD07E4B5B6803F00C03082B54D0C3
:100F00002369002B00F08A807A4B01221A60FFF7D8
:100F1000BBFC0546764B1B6813F0020F75D1FFF73B
:100F2000B3FC401B0228F5D903209EE1704A1368E8
:100F300043F480331360636843B3FFF7A5FC0546B1
:100F40006B4B1B6813F4003FCBD1FFF79DFC401B9C
:100F50006428F5D9032088E1B3F5A02F09D0644BAC
:100F60001A6822F480321A601A6822F480221A6009
:100F7000E1E703F18043A3F53C331A6842F4802291
:100F80001A601A6842F480321A60D4E7FFF77CFCDA
:100F90000546574B1B6813F4003FA2D0FFF774FCC3
:100FA000401B6428F5D903205FE1514B5B6813F4C3
:100FB000803FA5D14E4B1B6813F0020F03D023696D
:100FC000012B40F04F814A4A136823F0F80361690E
:100FD00043EAC1031360236813F0080F33D0A369F9
:100FE000002B5CD0434B0122C3F88024FFF74CFC5C
:100FF00005463F4B5B6A13F0020F21D1FFF744FC1B
:10100000401B0228F5D903202FE1394A136823F049
:10101000F803616943EAC1031360DCE7354B002242
:101020001A60FFF731FC0546314B1B6813F0020FC5
:10103000D1D0FFF729FC401B0228F5D9032014E189
:101040000120FFF701FF236813F0040F00F09680E2
:10105000274BDB6913F0805F34D1254BDA6942F00E
:101060008052DA61DB6903F080530193019B012513
:10107000214B1B6813F4807F26D0E368012B3DD001
:10108000002B53D103F1804303F504331A6A22F095
:1010900001021A621A6A22F004021A6233E0154B46
:1010A0000022C3F88024FFF7EFFB0546104B5B6A74
:1010B00013F0020FC7D0FFF7E7FB401B0228F5D95A
:1010C0000320D2E00025D3E70B4A136843F4807372
:1010D0001360FFF7D9FB0646074B1B6813F4807FAC
:1010E000CBD1FFF7D1FB801B6428F5D90320BCE0EE
:1010F0000010024000004242007000405F4A136A44
:1011000043F001031362E36833B3FFF7BDFB064608
:101110005A4B1B6A13F0020F2FD1FFF7B5FB801B50
:1011200041F288339842F3D903209EE0052B09D081
:10113000524B1A6A22F001021A621A6A22F0040261
:101140001A62E0E74D4B1A6A42F004021A621A6A08
:1011500042F001021A62D6E7FFF796FB0646474BBC
:101160001B6A13F0020F08D0FFF78EFB801B41F2C1
:1011700088339842F3D9032077E0E5B9E369002B7F
:1011800072D03E4A526802F00C02082A56D0022B56
:1011900017D03B4B00221A66FFF776FB0446374B0D
:1011A0001B6813F0007F47D0FFF76EFB001B02287F
:1011B000F5D9032059E0314AD36923F08053D36134
:1011C000DCE72F4B00221A66FFF75EFB05462B4B30
:1011D0001B6813F0007F06D0FFF756FB401B022868
:1011E000F5D9032041E0236AB3F5803F1AD02349A3
:1011F0004B6823F47413226A606A024313434B6002
:101200001F4B01221A66FFF73FFB04461B4B1B686E
:1012100013F0007F0ED1FFF737FB001B0228F5D932
:10122000032022E0154A536823F40033A1680B43DE
:101230005360DCE7002018E0002016E0012B16D0F8
:101240000E4B5B6803F48031226A914211D103F4A2
:101250007013626A93420ED1002006E001207047AD
:10126000012002E0012000E0002002B070BD01205A
:10127000FBE70120F9E70120F7E700BF001002407B
:101280000000424286B0174B0FCB0DF1180C0CE951
:101290000F0040F20123ADF80430134B5B6803F0FC
:1012A0000C02082A02D0114806B07047C3F38342EB
:1012B00018326A4412F8100C13F4803F0DD00A4B18
:1012C0005B68C3F3404318336B4413F8143C074A7C
:1012D00002FB00F0B0FBF3F0E6E7054B03FB00F088
:1012E000E2E700BFD43C00080010024000127A0080
:1012F00000093D00002800F0A08070B50D460446AE
:10130000524B1B6803F007038B420BD24F4A136802
:1013100023F007030B431360136803F007038B42AA
:1013200040F08D80236813F0020F17D013F0040FE4
:1013300004D0474A536843F4E0635360236813F0D2
:10134000080F04D0424A536843F460535360404A44
:10135000536823F0F003A1680B435360236813F034
:10136000010F31D06368012B20D0022B25D0384AE1
:10137000126812F0020F64D035494A6822F0030265
:1013800013434B60FFF780FA0646314B5B6803F06E
:101390000C036268B3EB820F16D0FFF775FA801B5F
:1013A00041F288339842F0D9032045E0284A126878
:1013B00012F4003FE0D101203EE0254A126812F00D
:1013C000007FD9D1012037E0204B1B6803F00703D1
:1013D000AB420AD91D4A136823F007032B4313605D
:1013E000136803F00703AB422DD1236813F0040FF9
:1013F00006D0174A536823F4E063E1680B43536057
:10140000236813F0080F07D0114A536823F4605380
:10141000216943EAC1035360FFF734FF0C4B5B685B
:10142000C3F303130B4AD35CD8400B4B18600B4B30
:101430001868FFF701F9002070BD012070470120F6
:10144000FAE70120F8E70120F6E700BF002002409C
:1014500000100240BC3C00080000002008000020F2
:10146000014B1868704700BF0000002008B5FFF767
:10147000F7FF044B5B68C3F30223034AD35CD840F5
:1014800008BD00BF00100240CC3C000808B5FFF7C3
:10149000E7FF044B5B68C3F3C223034AD35CD84025
:1014A00008BD00BF00100240CC3C00080F230360C1
:1014B0000B4B5A6802F0030242605A6802F0F002D5
:1014C00082605A6802F4E062C2605B68DB0803F481
:1014D000E0630361034B1B6803F007030B60704775
:1014E000001002400020024070B582B0044603683C
:1014F00013F0010F36D03F4BDB6913F0805F49D109
:101500003C4BDA6942F08052DA61DB6903F08053C8
:101510000193019B0125384B1B6813F4807F3BD05E
:10152000344B1B6A13F4407313D0626802F44072A8
:101530009A420ED02F4A136A23F440702F49012695
:10154000C1F840640026C1F84064106213F0010F36
:1015500036D1284A136A23F4407361680B4313623F
:10156000002D3ED1236813F0020F06D0214A5368A4
:1015700023F44043A1680B435360236813F0100F1A
:1015800034D01C4A536823F48003E1680B43536052
:1015900000202CE00025BEE7174A136843F480734F
:1015A0001360FFF771F90646134B1B6813F4807F35
:1015B000B6D1FFF769F9801B6428F5D9032016E03E
:1015C000FFF762F906460B4B1B6A13F0020FC0D1FE
:1015D000FFF75AF9801B41F288339842F3D9032070
:1015E00005E0D36923F08053D361BBE7002002B04C
:1015F00070BD00BF00100240007000400000424279
:10160000002856D010B50446436A33B94368B3F591
:10161000827F05D00023C36102E0002303614361A0
:101620000023A36294F85130002B3CD0022384F8AD
:1016300051302268136823F040031360636803F499
:101640008273A26802F404421343E26802F4006267
:101650001343226902F002021343626902F001029D
:101660001343A26902F400721343E26902F03802E4
:101670001343226A02F080021343A26A02F400526A
:10168000216813430B60638B226803F004035360EB
:101690002268D36923F40063D361002060650123CD
:1016A00084F8513010BD84F850302046FEF760FFBA
:1016B000BCE701207047704790F83D30DBB2012B4A
:1016C00027D1022380F83D300268D36843F001033C
:1016D000D3600368114A934210D0B3F1804F0DD00C
:1016E000A2F59432934209D002F58062934205D06C
:1016F0001A6842F001021A60002070479A6802F0EE
:101700000702062A07D01A6842F001021A60002078
:101710007047012070470020704700BF002C014037
:10172000704770477047704710B5044603681A69E0
:1017300012F0020F11D0DA6812F0020F0DD06FF024
:1017400002021A610123037703689B6913F0030FF8
:1017500070D0FFF7E6FF0023237723681A6912F0A1
:10176000040F12D0DA6812F0040F0ED06FF00402EA
:101770001A610223237723689B6913F4407F5FD0AB
:101780002046FFF7CEFF0023237723681A6912F063
:10179000080F12D0DA6812F0080F0ED06FF00802AE
:1017A0001A61042323772368DB6913F0030F4ED0FB
:1017B0002046FFF7B6FF0023237723681A6912F04B
:1017C000100F12D0DA6812F0100F0ED06FF0100266
:1017D0001A61082323772368DB6913F4407F3DD027
:1017E0002046FFF79EFF0023237723681A6912F033
:1017F000010F03D0DA6812F0010F36D123681A699D
:1018000012F0800F03D0DA6812F0800F34D1236811
:101810001A6912F0400F03D0DA6812F0400F32D18B
:1018200023681A6912F0200F03D0DA6812F0200F33
:1018300030D110BDFFF774FF2046FFF773FF8AE732
:101840002046FFF76DFF2046FFF76CFF9BE7204621
:10185000FFF766FF2046FFF765FFACE72046FFF77E
:101860005FFF2046FFF75EFFBDE76FF001021A61E0
:101870002046FEF7F3FDC1E76FF080021A612046B3
:1018800000F077F8C3E76FF040021A612046FFF7D7
:101890004AFFC5E76FF020021A61204600F068F8A1
:1018A000C7E7000003681B4A90420AD0B0F1804F9E
:1018B00007D0A2F59432904203D002F580629042A4
:1018C00003D123F070034A681343124A90420AD0AE
:1018D000B0F1804F07D0A2F59432904203D002F5C8
:1018E0008062904203D123F44073CA68134323F00B
:1018F00080034A69134303608B68C3620B68836289
:10190000044B984202D00123436170470B69036383
:10191000F9E700BF002C014040B310B5044690F831
:101920003D30F3B1022384F83D30214651F8040BD9
:10193000FFF7B8FF012384F8463084F83E3084F87E
:101940003F3084F8403084F8413084F8423084F8E5
:10195000433084F8443084F8453084F83D3000202A
:1019600010BD80F83C30FFF7A6FEDBE70120704792
:101970007047704784B001A880E80E00002004B0D2
:101980007047B0F8403023F47C535B045B0CA0F844
:101990004030002070470020704784B0844601A882
:1019A00080E80E000123ACF840300020ACF8400085
:1019B000ACF84400ACF8500004B070470020704709
:1019C000EFF3058393B9EFF3108393B90C4B1868C9
:1019D000022804D080B90A4B01221A607047EFF345
:1019E0001183002BF6D06FF0050070476FF00500F3
:1019F00070476FF0050070474FF0FF30704700BF31
:101A00004813002008B5EFF30583B3B9EFF3108353
:101A1000B3B90E4B1B68022B08D0012B13D10B4B13
:101A200002221A6001F00CF9002008BDEFF31182C8
:101A3000002AF2D06FF00500F7E76FF00500F4E739
:101A40006FF00500F1E74FF0FF30EEE7481300209C
:101A5000F0B587B000240494EFF30584002C44D142
:101A6000EFF31083002B40D1344B1B68022B16D0B0
:101A700000283AD000238DF817306AB3156895B165
:101A8000936903B918235C1E372C52D8546814F09C
:101A9000010F50D156694EB14FEA960C08E0EFF3B2
:101AA000118313BBE4E70DF11705E9E74FF0800C54
:101AB000946834B1D768B7F5916F02D3176907B14D
:101AC000B6B914B14FF0FF340CE0D46894B914697E
:101AD0009CB14FF0FF3405E0002418234FF0800C38
:101AE0000DF11705012C0AD0ACB1049807B0F0BD78
:101AF0000124F7E74FF0FF34F4E70024F2E714691C
:101B000092680292019400930B466246294601F0C6
:101B100025F80490E9E704AA019200930B461FFA06
:101B20008CF2294601F056F80128DED000230493F8
:101B3000DBE70020DAE70020D8E700BF48130020E9
:101B400008B5EFF30583A3B9EFF31083A3B90C4BEA
:101B50001B68022B02D040B9002008BDEFF31183AF
:101B6000002BF8D06FF00500F7E701F0D5F9002061
:101B7000F3E76FF00500F0E76FF00500EDE700BF59
:101B800048130020034B0360034B0B60802313605A
:101B9000704700BFC00E0020BC0C0020034B036048
:101BA000034B0B604FF48073136070475017002095
:101BB0004C13002000F1080343604FF0FF328260B5
:101BC000C360036100230360704700230361704713
:101BD00043684B609A688A60516099600861036845
:101BE00001330360704730B40D68B5F1FF3F11D089
:101BF00000F108031C465B681A68AA42FAD96368B8
:101C00004B6099608C606160086103680133036018
:101C100030BC70470469F2E70369416882688A60F2
:101C2000416851605A68824206D0002202611A68F7
:101C3000013A1A601868704782685A60F5E7000038
:101C400082B0002301930D4B1B68B3F1FF3F08D016
:101C50004FF0500383F31188BFF36F8FBFF34F8FA3
:101C6000FEE74FF0500383F31188BFF36F8FBFF38C
:101C70004F8F019B002BFCD002B070470C0000205E
:101C800006480068006880F3088862B661B6BFF352
:101C90004F8FBFF36F8F00DF00BF000008ED00E043
:101CA0004FF0807340F8043C21F0010140F8081C1B
:101CB000034B40F80C3C40F8202C4038704700BFE4
:101CC000411C0008000000000000000000000000AF
:101CD000074B19680868B0E8F00F80F30988BFF374
:101CE0006F8F4FF0000080F311884EF00D0E70479B
:101CF000382800204FF0500383F31188BFF36F8F13
:101D0000BFF34F8F0B4A136801331360012B00D0D0
:101D100070474FF0E023D3F8043D13F0FF0FF7D0E6
:101D20004FF0500383F31188BFF36F8FBFF34F8FD2
:101D3000FEE700BF0C000020094B1B6843B94FF0C1
:101D4000500383F31188BFF36F8FBFF34F8FFEE70C
:101D5000013B034A13600BB983F31188704700BF3E
:101D60000C00002000000000000000000000000047
:101D7000EFF30980BFF36F8F0D4B1A6820E9F00F66
:101D800010602DE908404FF0500080F3118801F0F9
:101D9000E9F84FF0000080F31188BDE808401968A9
:101DA0000868B0E8F00F80F30988BFF36F8F7047C1
:101DB0003828002008B54FF0500383F31188BFF393
:101DC0006F8FBFF34F8F00F09FFF28B14FF0E023DC
:101DD0004FF08052C3F8042D002383F3118808BD0F
:101DE0004FF0E022002313619361054B1B68054906
:101DF000A1FB03139B09013B536107231361704748
:101E000000000020D34D621010B582B02A4B1A7822
:101E1000D2B20192FF221A701B78DBB28DF8033028
:101E20009DF8033003F05003244A1370244B07221B
:101E30001A6009E0224A1368013B13609DF80330E1
:101E40005B00DBB28DF803309DF8033013F0800F98
:101E5000F0D11B4B1B68032B08D04FF0500383F3CA
:101E60001188BFF36F8FBFF34F8FFEE71B02144A39
:101E7000136003F4E0631360019BDBB20E4A13703E
:101E80004FF0E023D3F8202D42F47002C3F8202D48
:101E9000D3F8202D42F07042C3F8202DFFF7A0FFA9
:101EA0000024084B1C60FFF7EBFE01F05BF8FFF726
:101EB000C7FE204602B010BD00E400E0D81B0020A1
:101EC000DC1B00200C000020EFF305830F2B0FD943
:101ED000114A9B5CDBB2114A12789A4208D94FF042
:101EE000500383F31188BFF36F8FBFF34F8FFEE76B
:101EF0004FF0E023D3F80C3D03F4E063084A126886
:101F0000934208D94FF0500383F31188BFF36F8FCA
:101F1000BFF34F8FFEE77047F0E300E0D81B0020CF
:101F2000DC1B0020124A12F0070F1ED0D11D21F039
:101F30000701C1F5406313440A460E4802600021C0
:101F400041601344083B23F007030B4803605960CA
:101F50001960991A51601360084B1960084B196099
:101F6000084B4FF000421A6070474FF44063E4E7BB
:101F7000E41B0020F0270020E01B0020EC270020BD
:101F8000E8270020E4270020154B1A461B688342EF
:101F9000FBD3516802EB010C844509D0416800EB8A
:101FA000010C634509D00360904218D0106070475F
:101FB0004068014451601046F0E710B4094C2468B1
:101FC000A3420AD05B681944416013681B68036030
:101FD000904200D0106010BC70470460F8E7704772
:101FE000F0270020E01B002070B5054600F07EFEC3
:101FF000344B1B68A3B1344B1B681D424AD135B129
:10200000083515F0070F02D025F007050835002D1B
:1020100042D02E4B1B68AB424DD32D4A146804E0CE
:10202000FFF780FFE7E722461C466368AB4202D217
:102030002368002BF7D1234B1B68A3423DD01668C1
:1020400008362368136063685B1B102B10D9601976
:1020500010F0070F08D04FF0500383F31188BFF33F
:102060006F8FBFF34F8FFEE743606560FFF78CFF14
:10207000626816490B689B1A0B60164909688B4207
:1020800001D214490B60104B1B681343636000239B
:10209000236002E0002600E0002600F0C1FE16F0FA
:1020A000070F0CD04FF0500383F31188BFF36F8FED
:1020B000BFF34F8FFEE70026EFE70026EDE730463F
:1020C00070BD00BFE01B0020E4270020E8270020AF
:1020D000F0270020EC27002080B338B50446A0F19B
:1020E000080550F8043C164A1268134208D14FF014
:1020F000500383F31188BFF36F8FBFF34F8FFEE759
:1021000050F8081C41B14FF0500383F31188BFF31E
:102110006F8FBFF34F8FFEE723EA020340F8043CC2
:1021200000F0E4FD54F8041C064A13680B441360E5
:102130002846FFF729FF00F073FE38BD704700BF47
:10214000E4270020E827002010B50446FFF7D2FD61
:10215000A26BE36B9A4204D00024FFF7EDFD20460A
:1021600010BD0124F9E710B50446FFF7C3FDA36BCA
:1021700023B90124FFF7E0FD204610BD0024F9E754
:1021800070B504461546866B026C5AB903681BB1DC
:1021900000200136A66370BD406801F011F80023ED
:1021A0006360F6E76DB98068FDF7D2FF226CA36823
:1021B0001344A3606268934219D32368A36028463E
:1021C000E7E7C068FDF7C4FF226C5142E3689B1A41
:1021D000E3602268934202D263680B44E360022DFD
:1021E00001D00020D5E726B1013E0020D1E72846E6
:1021F000CFE70020CDE708B50346026C62B1084680
:10220000D9681144D960D3F804C0614501D3196875
:10221000D960D968FDF79CFF08BD38B50546FFF7C2
:1022200069FD95F8454064B201E0013C64B2002CC0
:102230000ADD6B6A43B105F1240000F017FF0028A6
:10224000F3D000F0A7FFF0E7FF2385F84530FFF754
:1022500073FDFFF74FFD95F8444064B201E0013C87
:1022600064B2002C0ADD2B6943B105F1100000F0C7
:10227000FDFE0028F3D000F08DFFF0E7FF2385F886
:102280004430FFF759FD38BD38B5E0B10D4604467E
:10229000FFF730FD2368E26B216C01FB02306060C8
:1022A0000020A063A360013A02FB0133E360FF2337
:1022B00084F8443084F84530FDB9236963B9FFF7E9
:1022C0003BFD012038BD4FF0500383F31188BFF36D
:1022D0006F8FBFF34F8FFEE704F1100000F0C6FED2
:1022E0000028ECD04FF0E0234FF08052C3F8042DCB
:1022F000BFF34F8FBFF36F8FE1E704F11000FFF7DB
:1023000059FC04F12400FFF755FCD8E738B51D4609
:10231000049C0B4649B92460E063236401212046F4
:10232000FFF7B2FF84F84C5038BD2260F4E740B9A3
:102330004FF0500383F31188BFF36F8FBFF34F8FBC
:10234000FEE710B584B01C46844653B192B189B9FA
:102350004FF0500383F31188BFF36F8FBFF34F8F9C
:10236000FEE74FF0500383F31188BFF36F8FBFF385
:102370004F8FFEE76AB150230393039B502B13D07A
:102380004FF0500383F31188BFF36F8FBFF34F8F6C
:10239000FEE70029EFD04FF0500383F31188BFF31D
:1023A0006F8FBFF34F8FFEE7012384F84630009410
:1023B0009DF818306046FFF7A9FF204604B010BD15
:1023C000F0B585B0019288B10F461D460446B1B103
:1023D000022D20D1E36B012B1DD04FF0500383F36E
:1023E0001188BFF36F8FBFF34F8FFEE74FF050039D
:1023F00083F31188BFF36F8FBFF34F8FFEE7036C3A
:10240000002BE5D04FF0500383F31188BFF36F8F9B
:10241000BFF34F8FFEE700F0C3FE064658B9019B9D
:10242000002B48D04FF0500383F31188BFF36F8F18
:10243000BFF34F8FFEE700263DE02A46394620468F
:10244000FFF79EFE636A7BB948B14FF0E0234FF07F
:102450008052C3F8042DBFF34F8FBFF36F8FFFF788
:102460006BFC012005B0F0BD04F1240000F0FEFD7E
:102470000028F4D04FF0E0234FF08052C3F8042D31
:10248000BFF34F8FBFF36F8FE9E7FFF755FC0020D5
:10249000E8E702A800F030FE012619E0002384F8E6
:1024A000443021E0002384F8453023E02046FFF744
:1024B000B4FE00F0B5FCFFF71DFCA26BE36B9A4283
:1024C000BBD3022DB9D0019B002BDED0002EE0D073
:1024D000FFF732FC00F00AFCFFF70CFC94F84420F4
:1024E00052B2B2F1FF3FD9D094F8452052B2B2F1C6
:1024F000FF3FD7D0FFF720FC01A902A800F008FE9B
:10250000D8B92046FFF720FE0028CFD0019904F16A
:10251000100000F077FD2046FFF77FFE00F080FC02
:102520000028C8D14FF0E0234FF08052C3F8042DAB
:10253000BFF34F8FBFF36F8FBDE72046FFF76DFEF0
:1025400000F06EFC00208DE72DE9F84390B10F46B6
:1025500016461C460546B1B1022C20D1EB6B012B6F
:102560001DD04FF0500383F31188BFF36F8FBFF37B
:102570004F8FFEE74FF0500383F31188BFF36F8F47
:10258000BFF34F8FFEE7036C002BE5D04FF05003F5
:1025900083F31188BFF36F8FBFF34F8FFEE7FFF711
:1025A00093FCEFF311894FF0500383F31188BFF3CD
:1025B0006F8FBFF34F8FAA6BEB6B9A4206D3022C3F
:1025C00004D0002089F31188BDE8F88395F8458090
:1025D0004FFA88F8224639462846FFF7D1FDB8F170
:1025E000FF3F06D008F101035BB285F845300120BA
:1025F000E8E76B6A0BB90120E4E705F1240000F07D
:1026000035FD18B126B101203060DBE70120D9E7A4
:102610000120D7E7F0B585B0019290B10F4604468E
:10262000C1B100F0BDFD064600BB019B002B5ED092
:102630004FF0500383F31188BFF36F8FBFF34F8FB9
:10264000FEE74FF0500383F31188BFF36F8FBFF3A2
:102650004F8FFEE7036C002BE3D04FF0500383F362
:102660001188BFF36F8FBFF34F8FFEE700263EE068
:1026700039462046FFF7BFFD013DA563236923B915
:10268000FFF75AFB012005B0F0BD04F1100000F087
:10269000EDFC0028F4D04FF0E0234FF08052C3F857
:1026A000042DBFF34F8FBFF36F8FE9E7FFF744FBB4
:1026B0000020E8E702A800F01FFD012621E000232A
:1026C00084F8443029E0002384F845302BE020468C
:1026D000FFF7A3FD00F0A4FB09E02046FFF79DFDF6
:1026E00000F09EFB2046FFF73EFD00283FD1FFF79C
:1026F00001FBA56B002DBBD1019B002BD6D0002E7A
:10270000D8D0FFF719FB00F0F1FAFFF7F3FA94F8CD
:1027100044305BB2B3F1FF3FD1D094F845305BB2A7
:10272000B3F1FF3FCFD0FFF707FB01A902A800F0EC
:10273000EFFC0028D1D12046FFF715FD0028C6D0B8
:10274000019904F1240000F05DFC2046FFF765FDCF
:1027500000F066FB0028CAD14FF0E0234FF0805212
:10276000C3F8042DBFF34F8FBFF36F8FBFE7002077
:1027700089E700000023072B0CD8074A52F83320C2
:102780000AB10133F7E7044A42F8331002EBC303FE
:1027900058607047704700BFF827002070B50446A6
:1027A0000D461646FFF7A6FA94F844305BB2B3F133
:1027B000FF3F0DD094F845305BB2B3F1FF3F0BD033
:1027C000FFF7BAFAA36B5BB12046FFF726FD70BD99
:1027D000002384F84430EDE7002384F84530EFE728
:1027E0003246294604F1240000F024FCECE7000006
:1027F000084B1B681B6823B9074B4FF0FF321A6068
:102800007047044B1B68DB68DB685A68024B1A6030
:10281000704700BF3C280020E82C00202DE9F0473D
:1028200080460D4617469946089EDDF824A00A9C6E
:102830009200A521206B00F04DFF236B07F1804231
:10284000013A03EB820727F007074FF0000CBCF1B9
:102850000F0F0BD815F80C2004EB0C0383F8342071
:1028600015F80C3013B10CF1010CF0E7002384F8DB
:102870004330372E00D93726E662E6640025256509
:10288000201DFFF7A2F904F11800FFF79EF924615B
:10289000C6F13806A6616462C4F8805484F8845492
:1028A0004FF48562294604F1580000F013FF04F547
:1028B0005173E36504F56B73236604F21443636696
:1028C00001220023C4E9402343F20E33A4F8083167
:1028D0004AF6CD33A4F80A3141F23423A4F80C317E
:1028E0004EF26D63A4F80E314DF6EC63A4F810318E
:1028F0000523A4F812310B23A4F814314A464146AB
:102900003846FFF7CDF92060BAF1000F01D0CAF8C0
:102910000040BDE8F087000038B5002407E004EB74
:10292000840293000E481844FFF744F90134372C11
:10293000F5D90C4D2846FFF73DF90B4C2046FFF723
:1029400039F90A48FFF736F90948FFF733F909481A
:10295000FFF730F9084B1D60084B1C6038BD00BF05
:1029600044280020BC2C0020D02C0020F02C00207B
:102970001C2D0020082D00203C280020402800208D
:1029800010B50446FFF7B6F9224A13680133136005
:10299000214B1B685BB1214B1B686BB91E4B1B683D
:1029A000DA6AE36A9A4207D81B4B1C6004E01A4BB0
:1029B0001C601368012B29D0194A13680133136076
:1029C0006364E06A174B1B68984201D9154B186085
:1029D00000EB8000211D144B03EB8000FFF7F8F89B
:1029E000FFF7AAF90D4B1B687BB10B4B1B68DA6A2A
:1029F000E36A9A4209D24FF0E0234FF08052C3F8C5
:102A0000042DBFF34F8FBFF36F8F10BDFFF784FF0F
:102A1000D2E700BFA42C002038280020042D00207D
:102A2000B42C0020B82C00204428002010B5044607
:102A3000583000F0C5FE94F8853463B1012B11D0F5
:102A4000022B0ED04FF0500383F31188BFF36F8F2A
:102A5000BFF34F8FFEE7206BFFF73EFB2046FFF7EB
:102A60003BFB10BD2046FFF737FBFAE70F4B1B6817
:102A7000D3B110B5FFF73EF90D4BDB68DC68201DC4
:102A8000FFF7CAF80B4A1368013B1360074A136843
:102A9000013B1360FFF750F92046FFF7C7FF034BD8
:102AA0001B68002BE6D110BD704700BFA82C00208A
:102AB0001C2D0020A42C002008B5FFF7D7FF074BE2
:102AC0001B68012BF9D94FF0E0234FF08052C3F877
:102AD000042DBFF34F8FBFF36F8FEEE74428002024
:102AE00070B504460D46174B1E68174B1868043026
:102AF000FFF792F8B4F1FF3F0DD03444124B1B683E
:102B00005C60A64210D9114B18680F4B196804314C
:102B1000FFF769F870BD002DEFD00B4B1968043139
:102B20000B48FFF755F8F5E70A4B1868064B19688C
:102B30000431FFF758F8084B1B68A342EAD9064B4B
:102B40001C60E7E7302D00203828002040280020B6
:102B5000082D00203C280020E82C002030B587B04C
:102B60000B9C8CB10C9DC5B14FF491650495049DEF
:102B7000B5F5916F1AD04FF0500383F31188BFF36E
:102B80006F8FBFF34F8FFEE74FF0500383F3118831
:102B9000BFF36F8FBFF34F8FFEE74FF0500383F308
:102BA0001188BFF36F8FBFF34F8FFEE70C9D2C632F
:102BB000022485F8854400240394029505AC019411
:102BC0000A9C0094FFF72AFE0C98FFF7D9FE05989F
:102BD00007B030BD2DE9F04385B00746884614465E
:102BE0001E469000FFF700FA08B381464FF491604B
:102BF000FFF7FAF90546B0B1C0F83090E5B100230F
:102C000085F88534039302950D9B01930C9B0093EB
:102C10003346224641463846FFF700FE2846FFF776
:102C2000AFFE012005E04846FFF756FAE6E74FF011
:102C3000FF3005B0BDE8F0834FF0FF30F9E700004A
:102C400010B588B000240594069407AA06A905A823
:102C5000FEF798FF059B0293069B01930094234681
:102C6000079A1A491A48FFF779FF1A4B186040B1C2
:102C700000F05AFB012806D0B0F1FF3F1DD008B08C
:102C800010BD0020F6E74FF0500383F31188BFF327
:102C90006F8FBFF34F8F104B1B6858330F4A136071
:102CA0000F4B4FF0FF321A600E4B01221A600E4B91
:102CB00000221A60FFF7A8F8E1E74FF0500383F312
:102CC0001188BFF36F8FBFF34F8FFEE7E83C00081A
:102CD000B92A0008E42C0020382800201000002029
:102CE000E82C0020042D0020302D0020024A13681B
:102CF00001331360704700BFB02C0020014B1868EF
:102D0000704700BF302D0020F8B53A4B1B68002BF0
:102D100064D1394B1D6801351D60C5B9374B1B683F
:102D20001B6843B14FF0500383F31188BFF36F8FDB
:102D3000BFF34F8FFEE7314A1168314B18681060BE
:102D40001960304A136801331360FFF751FD2E4BB1
:102D50001B68AB4238D900272C4B1B68DB6A03EB9E
:102D600083039A002A4B9B58012B3CD901273AE058
:102D70000127224B1B681B6843B3204B1B68DB6891
:102D8000DC6863689D4226D3261D3046FEF744FF6B
:102D9000A36A1BB104F11800FEF73EFFE36A1D4A67
:102DA0001268934201D91B4A136003EB83039A0014
:102DB000314617481044FEF70BFFE26A134B1B68BD
:102DC000DB6A9A42D4D2D4E70027D2E70E4B4FF009
:102DD000FF321A60C0E70C4A1360BDE70E4A136861
:102DE0000133136000270D4B1B6803B101273846E0
:102DF000F8BD00BFB02C0020302D00203C28002062
:102E000040280020EC2C0020E82C0020382800204E
:102E100044280020B82C0020AC2C0020342D0020A9
:102E200038B5354B1B6843B94FF0500383F3118815
:102E3000BFF36F8FBFF34F8FFEE7FEF75BFF2E4BA5
:102E40001A68013A1A601B68002B4FD12B4B1B6884
:102E50000BB900244BE00024294B1B681BB3284B03
:102E6000DB68DC6804F11800FEF7D6FE251D284655
:102E7000FEF7D2FEE06A234B1B68984201D9214B32
:102E8000186000EB800029461F4B03EB8000FEF723
:102E90009FFEE26A1D4B1B68DB6A9A42DCD31C4B27
:102EA00001221A60D8E70CB1FFF7A2FC194B1C688D
:102EB00084B9174B1C68D4B14FF0E0234FF0805217
:102EC000C3F8042DBFF34F8FBFF36F8F01240EE0C3
:102ED000013C07D0FFF718FF0028F9D00C4B012266
:102EE0001A60F5E70B4B00221A60E2E70024FEF7B8
:102EF00023FF204638BD00BFB02C0020A42C0020AA
:102F0000F02C0020B82C0020442800203828002075
:102F1000342D0020AC2C002010B5A8B10446104B75
:102F20001B6843B14FF0500383F31188BFF36F8FD9
:102F3000BFF34F8FFEE7FFF7D9FE00212046FFF7D2
:102F4000CFFDFFF76DFF48B94FF0E0234FF08052FF
:102F5000C3F8042DBFF34F8FBFF36F8F10BD00BFB9
:102F6000B02C0020214B1B681BB1214B01221A60A1
:102F700070471F4B00221A601E4B1B6803EB830136
:102F80008A001D498A585AB90BB1013BF6E74FF048
:102F9000500383F31188BFF36F8FBFF34F8FFEE7AA
:102FA00003EB830082000A4450684068506003EBE2
:102FB000830C4FEA8C020832114488420FD003EB95
:102FC000830291000C4A0A445268D1680B4A11608E
:102FD00008490B6013685833094A1360704740680A
:102FE00062469100044A0A445060E8E7B02C002091
:102FF000342D0020B82C0020442800203828002040
:103000001000002058B110B50C46094A116818315B
:10301000FEF7E9FD01212046FFF762FD10BD4FF0EC
:10302000500383F31188BFF36F8FBFF34F8FFEE719
:103030003828002038B570B10D4614460A4A116888
:103040001831FEF7C5FD0CB14FF0FF35214628467B
:10305000FFF746FD38BD4FF0500383F31188BFF3EF
:103060006F8FBFF34F8FFEE73828002038B5C36855
:10307000DC6824B304F118052846FEF7CDFD184B93
:103080001B682BBB251D2846FEF7C6FDE06A154BC5
:103090001B68984201D9134B186000EB8000294649
:1030A000114B03EB8000FEF793FDE26A0F4B1B68A8
:1030B000DB6A9A4211D901200D4B186038BD4FF0E0
:1030C000500383F31188BFF36F8FBFF34F8FFEE779
:1030D00029460848FEF77CFDE7E70020EEE700BF41
:1030E000B02C0020B82C00204428002038280020D4
:1030F000342D0020F02C0020034B1B680360034B91
:103100001B684360704700BFEC2C0020302D00206E
:10311000D8B170B50C46054601B3FEF7EBFD1B4B6D
:1031200019686B68C81A2268B2F1FF3F27D0184EA1
:103130003668D5F800C0B44501D08B4224D982420C
:1031400015D80023236001241AE04FF0500383F3C5
:103150001188BFF36F8FBFF34F8FFEE74FF050031F
:1031600083F31188BFF36F8FBFF34F8FFEE75B1AB6
:10317000134423602846FFF7BFFF002400E000242B
:10318000FEF7DAFD204670BD0124F9E7302D00205E
:10319000EC2C0020014B01221A607047342D0020D6
:1031A000054B1B6833B1054B1B680BB10020704702
:1031B0000220704701207047042D0020B02C002011
:1031C00000283BD038B504461E4B1B68834208D00C
:1031D0004FF0500383F31188BFF36F8FBFF34F8F0E
:1031E000FEE7036D43B94FF0500383F31188BFF33B
:1031F0006F8FBFF34F8FFEE7013B0365C16AC26C5F
:1032000091421DD00BB1002038BD051D2846FEF7A8
:1032100003FDE06CE062C0F13803A3610A4B1B6858
:10322000984201D9084B186000EB80002946074BF3
:1032300003EB8000FEF7CCFC0120E5E7002070479F
:103240000020E1E738280020B82C00204428002086
:10325000064B1A681368B3FA83F35B09036013B96A
:10326000D368186870470020704700BF382D0020D1
:1032700008B54160006191420CD8D21A83699A4224
:1032800001D3012008BD011D094B1868FEF7ABFCF6
:103290000020F7E79A4201D2994206D2011D054B60
:1032A0001868FEF7A0FC0020ECE70120EAE700BF69
:1032B0003C2D0020382D002030B583B0FEF71AFDDC
:1032C000114B1B681BB1FEF737FD03B030BD0F4D2E
:1032D0002846FEF76FFC0E4C2046FEF76BFC0D4BAC
:1032E0001D600D4B1C60002300930C4B0C4A1021F9
:1032F0000A20FFF71CF8044B18600028E3D00949A6
:10330000FFF738FADFE700BF5C2E0020E02D002039
:10331000F42D0020382D00203C2D00200C2E002004
:10332000402D0020F03C000810B588B0FFF7C4FF26
:10333000124B1B68CBB100240594069407AA06A97A
:1033400005A8FEF72BFC059B0293069B0193022325
:1033500000932346079A0A490A48FFF7FFFB0A4BE6
:10336000186010B1012008B010BD4FF0500383F376
:103370001188BFF36F8FBFF34F8FFEE75C2E0020E5
:10338000F83C000869360008602E0020B8B19C4661
:1033900003461848006858B300B585B00091019203
:1033A000029305291CDCFFF7FBFE022810D0002346
:1033B0001A4669460F480068FFF702F815E04FF01B
:1033C000500383F31188BFF36F8FBFF34F8FFEE776
:1033D0000023069A694607480068FEF7F1FF04E0FB
:1033E000002362466946FFF7AFF805B05DF804FBBD
:1033F000002070475C2E002070B582B01A4B1B680D
:103400001A6852B3DB681E68DC68251D2846FEF783
:1034100003FC636A20469847E369012BEED1A36958
:1034200033449E4207D26360246129460E4B1868DC
:10343000FEF7D9FBE2E7002100910B463246204619
:10344000FFF7A4FF0028D9D14FF0500383F3118870
:10345000BFF36F8FBFF34F8FFEE7044A1068024936
:103460000860136002B070BD382D00203C2D002094
:1034700038B50546FFF742FC0446074B1B688342FC
:1034800005D800232B60044B1C60204638BDFFF795
:10349000B3FF01232B60F6E7082E002070B582B041
:1034A00006460D4614490968C968CC68201DFEF718
:1034B000B3FBE169012904D0636A2046984702B052
:1034C00070BDA16933462A4631442046FFF7D0FE3D
:1034D0000028F1D0002100910B4632462046FFF72C
:1034E00055FF0028E8D14FF0500383F31188BFF354
:1034F0006F8FBFF34F8FFEE7382D002070B582B07D
:1035000006460C46FFF7F2FB01A8FFF7B1FF019B4F
:103510002BBB05460CB9B0421AD22CB1124B1B681A
:103520001C68B4FA84F464092246711B0F4B1868B6
:10353000FFF734F9FFF774FC98B94FF0E0234FF030
:103540008052C3F8042DBFF34F8FBFF36F8F08E095
:10355000FFF766FC29463046FFF7A0FF01E0FFF7C2
:103560005FFC02B070BD00BF3C2D00205C2E00202F
:1035700010B588B002E0049B002B0FDA002204A9EA
:10358000384B1868FFF746F8002869D0049B002BD9
:10359000F1DA07990698059B9847ECE7069C636962
:1035A00013B1201DFEF738FB03A8FFF761FF049B52
:1035B000092BE3D801A252F823F000BFE53500083B
:1035C000E5350008E53500087D3500082B36000894
:1035D00051360008E5350008E53500087D3500085E
:1035E0002B360008059BA169024619442046FFF7C7
:1035F0003FFE0028C2D0636A20469847E369012B4A
:10360000BCD1A269002100910B46059802442046D6
:10361000FFF7BCFE0028B1D14FF0500383F31188AF
:10362000BFF36F8FBFF34F8FFEE70599A16131B1F3
:103630000346024601442046FFF71AFE9EE74FF07C
:10364000500383F31188BFF36F8FBFF34F8FFEE7F3
:1036500094F82C30002B91D12046FEF73DFD8DE7EC
:1036600008B010BD5C2E002000B583B001A8FFF7A4
:10367000EFFD0199FFF742FFFFF77AFFF6E7000041
:10368000014B1868704700BF1000002070B50D4E48
:103690000D4D761BB61006D0002455F8043B0134BE
:1036A0009847A642F9D1094E094D00F0AFFA761BB2
:1036B000B61006D0002455F8043B01349847A642C2
:1036C000F9D170BD043D0008043D00080C3D000820
:1036D000043D0008830730B548D0541E002A3FD06F
:1036E0000346CAB201E0013C3AD303F8012B9D071F
:1036F000F9D1032C2DD9CDB245EA05250F2C45EA89
:10370000054536D9A4F1100222F00F0C03F1200E6A
:10371000E6444FEA121C03F1100242E9045542E963
:10372000025510327245F8D10CF1010214F00C0F61
:1037300003EB021204F00F0C13D0ACF1040323F0DE
:1037400003030433134442F8045B9342FBD10CF0AF
:1037500003042CB1CAB21C4403F8012B9C42FBD1D8
:1037600030BD64461346002CF4D1F9E703461446F5
:10377000BFE71A46A446E0E72DE9F0410E680C4683
:103780000546BEB137688FB1D7F80080B8F1000F99
:1037900008D0D8F8001009B1FFF7EEFF41462846DF
:1037A00000F0CCF83946284600F0C8F831462846E3
:1037B00000F0C4F821462846BDE8F04100F0BEB84C
:1037C000224B1B68834240D0C16C70B5054681B165
:1037D00000268C593CB121462468284600F0AEF8FA
:1037E000002CF8D1E96C0436802EF2D1284600F086
:1037F000A5F8296C11B1284600F0A0F8D5F8484189
:1038000054B105F5A676B44206D021462468284670
:1038100000F094F8A642F8D1696D11B1284600F085
:103820008DF8AB6B83B12846EB6B9847D5F8E04237
:1038300054B1216811B12846FFF79EFF2146284662
:10384000BDE8704000F07AB870BD704710000020ED
:10385000024B13B1024800F005B8704700000000A9
:1038600071380008002301461A46184600F088B94E
:1038700038B5084B084D5B1B9C1007D0043B1D441A
:10388000013C55F804399847002CF9D1BDE838407F
:1038900000F0C2B9103D00080C3D0008F8B50C4618
:1038A000234F064600F04EF9BB685D68C4F57E63A1
:1038B00025F003050F332B4423F47F6323F00F031C
:1038C000A3F58054B4F5805F07DB0021304600F09B
:1038D00045F9BB682B44984204D0304600F038F9D3
:1038E0000020F8BD3046614200F038F901300DD0BB
:1038F000104ABB682D1B45F001055D60136830461A
:103900001B1B136000F024F90120F8BD0021304694
:1039100000F024F9BA68831A0F2BDEDD43F00103AF
:103920005360054B03491B68C01A0860D5E700BF08
:1039300044040020702E00204C08002000295ED096
:10394000F8B50C46064600F0FDF854F8042C784F04
:10395000A4F1080522F001016818D7F808C04368EF
:10396000844523F0030300F08780D207436034D4FA
:1039700054F8082C07F10804AD1A1144AA68A242B1
:1039800068D000EB030CDCF804E0D5F80CC01EF0A6
:10399000010FC2F80CC0CCF8082000F0918041F073
:1039A00001036B600160B1F5007F31D24A09CB0899
:1039B000012191407A6801331143796007EBC3021A
:1039C00057F83310083AC5E9021247F83350CD6072
:1039D0003046BDE8F84000F0BBB8C2185268D207C4
:1039E0000ED4194407F108048368A34270D0C2685A
:1039F000DA60936041F001036B606950D3E7704770
:103A000041F00103B1F5007F44F8043C0160CDD3DF
:103A1000B1F5206F4FEA512347D28B0903F13900EA
:103A200003F13802C300F818FB580838984258D000
:103A30005A6822F003028A4202D99B689842F7D161
:103A4000D868C5E9023085603046DD60BDE8F840E1
:103A500000F07EB8C2185268D20763D40B44D0E994
:103A60000212CA60916043F001026A603046EB5076
:103A7000BDE8F84000F06CB80B44D10707D454F807
:103A8000082CAD1A1344D5E90212CA60916043F0C4
:103A900001026A60274ABD6012689A4298D8264B94
:103AA00030461968FFF7FAFE92E7142B0AD9542B17
:103AB0001FD80B0B03F16F0003F16E02C300B2E7D6
:103AC000194491E703F15C0003F15B02C300AAE72C
:103AD00041F00103C7E90455C5E902446B60695030
:103AE00076E70121921001FA02F279680A437A60BE
:103AF000A7E7B3F5AA7F06D8CB0B03F1780003F153
:103B00007702C3008FE740F25452934206D88B0CE1
:103B100003F17D0003F17C02C30084E74FF47E7360
:103B20007E2280E741F001036B60016050E700BF37
:103B30004404002050080020982E0020704700BF49
:103B4000704700BF0148FFF7F9BF00BF6C2E00208F
:103B50000148FFF7F5BF00BF6C2E0020002238B5EA
:103B6000064D044608462A60FCF7D6FD431C00D0EB
:103B700038BD2B68002BFBD0236038BD642E00209D
:103B80002DE9F047DFF87CA00646DAF800009846F9
:103B90000F469146FFF7D2FF1B4B1B68D3F84841F5
:103BA00024B365681F2D26DC5EB96B1C0235DAF87C
:103BB0000000636044F82570FFF7C2FF0020BDE8F5
:103BC000F087012304EB8501C1F88890D4F888219F
:103BD000AB401A43022EC4F88821C1F80881E4D111
:103BE000D4F88C211343C4F88C31DEE703F5A674B6
:103BF000C3F84841D5E7DAF80000FFF7A1FF4FF01E
:103C0000FF30DCE740040020003D0008F8B500BFAD
:103C1000F8BC08BC9E467047F8B500BFF8BC08BCAD
:043C20009E46704705
:103C24004C69676874696E6745666665637473009A
:103C34004C434453637265656E0000004B657962C2
:103C44006F617264496E707574000000403C000836
:103C54000000000000000000000000000000000060
:103C64000002000037000000000000000000000017
:103C7400343C0008000000000000000000000000C8
:103C84000000000000020000280000000000000006
:103C940000000000243C00080000000000000000B8
:103CA40000000000000000000002000030000000DE
:103CB4000000000000000000000000000000000000
:103CC40001020304060708090000000001020304BE
:103CD40002030405060708090A0B0C0D0E0F101049
:103CE4000000000049444C4500000000546D72512E
:103CF40000000000546D7220537663001800002009
:083D04005138000835010008E8
:043D0C001101000899
:103D10000024F4000100000010000000AAAAAAAAD2
:103D20001800002000000000000000000403002034
:103D30006C030020D40300200000000000000000FD
:103D40000000000000000000000000000000000073
:103D50000000000000000000000000000000000063
:103D60000000000000000000000000000000000053
:103D70000000000000000000000000000000000043
:103D80000000000000000000000000000000000033
:103D90000000000000000000000000000000000023
:103DA0000000000000000000000000000000000013
:103DB0000000000000000000000000000000000003
:103DC00000000000000000000000000000000000F3
:103DD00001000000000000000E33CDAB34126DE690
:103DE000ECDE05000B0000000000000000000000F9
:103DF00000000000000000000000000000000000C3
:103E000000000000000000000000000000000000B2
:103E100000000000000000000000000000000000A2
:103E20000000000000000000000000000000000092
:10415000682E002000000000000000004404002041
:10416000440400204C0400204C040020540400208F
:10417000540400205C0400205C040020640400203F
:10418000640400206C0400206C04002074040020EF
:10419000740400207C0400207C040020840400209F
:1041A000840400208C0400208C040020940400204F
:1041B000940400209C0400209C040020A4040020FF
:1041C000A4040020AC040020AC040020B4040020AF
:1041D000B4040020BC040020BC040020C40400205F
:1041E000C4040020CC040020CC040020D40400200F
:1041F000D4040020DC040020DC040020E4040020BF
:10420000E4040020EC040020EC040020F40400206E
:10421000F4040020FC040020FC040020040500201D
:10422000040500200C0500200C05002014050020CA
:10423000140500201C0500201C050020240500207A
:10424000240500202C0500202C050020340500202A
:10425000340500203C0500203C05002044050020DA
:10426000440500204C0500204C050020540500208A
:10427000540500205C0500205C050020640500203A
:10428000640500206C0500206C05002074050020EA
:10429000740500207C0500207C050020840500209A
:1042A000840500208C0500208C050020940500204A
:1042B000940500209C0500209C050020A4050020FA
:1042C000A4050020AC050020AC050020B4050020AA
:1042D000B4050020BC050020BC050020C40500205A
:1042E000C4050020CC050020CC050020D40500200A
:1042F000D4050020DC050020DC050020E4050020BA
:10430000E4050020EC050020EC050020F405002069
:10431000F4050020FC050020FC0500200406002018
:10432000040600200C0600200C06002014060020C5
:10433000140600201C0600201C0600202406002075
:10434000240600202C0600202C0600203406002025
:10435000340600203C0600203C06002044060020D5
:10436000440600204C0600204C0600205406002085
:10437000540600205C0600205C0600206406002035
:10438000640600206C0600206C06002074060020E5
:10439000740600207C0600207C0600208406002095
:1043A000840600208C0600208C0600209406002045
:1043B000940600209C0600209C060020A4060020F5
:1043C000A4060020AC060020AC060020B4060020A5
:1043D000B4060020BC060020BC060020C406002055
:1043E000C4060020CC060020CC060020D406002005
:1043F000D4060020DC060020DC060020E4060020B5
:10440000E4060020EC060020EC060020F406002064
:10441000F4060020FC060020FC0600200407002013
:10442000040700200C0700200C07002014070020C0
:10443000140700201C0700201C0700202407002070
:10444000240700202C0700202C0700203407002020
:10445000340700203C0700203C07002044070020D0
:10446000440700204C0700204C0700205407002080
:10447000540700205C0700205C0700206407002030
:10448000640700206C0700206C07002074070020E0
:10449000740700207C0700207C0700208407002090
:1044A000840700208C0700208C0700209407002040
:1044B000940700209C0700209C070020A4070020F0
:1044C000A4070020AC070020AC070020B4070020A0
:1044D000B4070020BC070020BC070020C407002050
:1044E000C4070020CC070020CC070020D407002000
:1044F000D4070020DC070020DC070020E4070020B0
:10450000E4070020EC070020EC070020F40700205F
:10451000F4070020FC070020FC070020040800200E
:10452000040800200C0800200C08002014080020BB
:10453000140800201C0800201C080020240800206B
:10454000240800202C0800202C080020340800201B
:10455000340800203C0800203C080020FFFFFFFF3B
:044560000000020055
:0400000508000801E6
:00000001FF
